:020000040800F2
:10000000005000202D310008612D0008632D0008EC
:10001000652D0008672D0008692D0008000000000C
:100020000000000000000000000000006B2D000830
:100030006D2D0008000000006F2D0008712D0008D4
:1000400075310008753100087531000875310008F8
:100050007531000875310008753100087D2D0008E4
:1000600075310008753100087531000875310008D8
:1000700075310008753100087531000875310008C8
:1000800075310008753100087531000875310008B8
:100090008D2D000875310008753100087531000894
:1000A0007531000875310008753100087531000898
:1000B0007531000875310008753100087531000888
:1000C0007531000875310008753100087531000878
:1000D0007531000875310008753100087531000868
:1000E0007531000875310008753100080000000006
:1000F0000000000000000000000000000000000000
:0C01000000000000000000005FF808F1A3
:10010C0010B5054C237833B9044B13B10448AFF345
:10011C0000800123237010BDE400002000000000CB
:10012C00C03100080C4B43B10C4810B50C49AFF36F
:10013C0000800C48036823B910BD0A48036833B922
:10014C007047094B002BF7D0BDE810401847064B01
:10015C00002BF5D0184700BF00000000C03100088C
:10016C00E8000020E40000200000000010B5044668
:10017C000E4B18784FF47A73B3FBF0F30C4A1068FB
:10018C00B0FBF3F000F09EF868B90F2C01D90120F8
:10019C0010BD002221464FF0FF3000F055F8034B04
:1001AC005C60002010BD012010BD00BF00000020CD
:1001BC00AC00002008B5074A136843F01003136025
:1001CC00032000F02FF80020FFF7D0FF02F072FDA3
:1001DC00002008BD00200240034A1168034B1B7825
:1001EC000B441360704700BF400200200000002049
:1001FC00014B1868704700BF4002002038B5044618
:10020C00FFF7F6FF0546B4F1FF3F02D0044B1B7815
:10021C001C44FFF7EDFF401B8442FAD838BD00BFE9
:10022C0000000020074AD36823F4E0631B041B0C76
:10023C00000200F4E060184340F0BF6040F400306E
:10024C00D060704700ED00E030B4164BDB68C3F3B0
:10025C000223C3F10704042C28BF04241D1D062D02
:10026C0017D9033B012505FA04F4013C21409940C0
:10027C0005FA03F3013B1340194300280BDB09017A
:10028C00C9B200F1604000F5614080F8001330BC49
:10029C0070470023E6E700F00F000901C9B2024BDA
:1002AC001954F4E700ED00E014ED00E0420900F011
:1002BC001F00012303FA00F0014B43F822007047A2
:1002CC0000E100E00138B0F1807F0AD2064B5860A3
:1002DC00F021064A82F823100020986007221A6049
:1002EC0070470120704700BF10E000E000ED00E017
:1002FC00042805D0054A136823F0040313607047E3
:10030C00024A136843F004031360704710E000E0E6
:10031C00704708B5FFF7FCFF08BD0000F0B583B0CF
:10032C000026344671E0002D00F0A180012D00D193
:10033C00CE68FF2B00F2AF808646FF2B00F2AE801A
:10034C00A500DEF800200F27AF4022EA070206FACC
:10035C0005F52A43CEF800204A6812F0805F53D08E
:10036C00634A956945F001059561926902F00102B5
:10037C000192019AA508AF1C5E4A52F8272004F09E
:10038C000307BF004FF00F0E0EFA07FE22EA0E0213
:10039C00DFF870E1704500F088800EF5806E7045D6
:1003AC0000F086800EF5806E704500F084800EF5AE
:1003BC00806E704576D04FF0040E0EFA07F73A4374
:1003CC0002354C4F47F825204A6812F4803F75D00F
:1003DC00494D2A681A432A604A6812F4003F73D0C8
:1003EC00454D6A681A436A604A6812F4801F71D0DE
:1003FC00414DAA681A43AA604A6812F4001F6FD0D4
:10040C003D4DEA681343EB6001340F2C6ED801228A
:10041C00A2400B6813409A42F6D14D68122D30D091
:10042C000BD8022D2AD07FF67EAF032D2FD0112DA5
:10043C007FF47FAFCE6804367BE7304FBD4216D0D9
:10044C000CD92F4FBD4212D007F58037BD420ED0CC
:10045C00A7F58017BD427FF46CAF08E0A7F58017B5
:10046C00BD4204D007F58037BD427FF462AF8D6882
:10047C007DB1012D08D0426108265AE7CE680836B6
:10048C0057E7CE680C3654E70261082651E7002680
:10049C004FE704264DE700F1040E4EE7A4F10805E2
:1004AC00AD004EE74FF0030E87E74FF0000E84E7E8
:1004BC004FF0010E81E74FF0020E7EE70E4D2A68D9
:1004CC0022EA03022A6087E70B4D6A6822EA0302DC
:1004DC006A6089E7084DAA6822EA0302AA608BE7E2
:1004EC00054DEA6822EA0303EB608DE703B0F0BD2B
:1004FC0000100240000001400004014000002110E7
:10050C00000031100008014012B909040161704764
:10051C00016170477047000008B5054B5B690342E9
:10052C0000D108BD024B5861FFF7F4FFF9E700BF9B
:10053C0000040140002866D0F0B587B0044690F85E
:10054C002934C3B1032384F82934206801F014F84A
:10055C00254655F8107B6E460FCD0FC62B683360C1
:10056C00231D0ECB384600F0F7FF0021206801F068
:10057C000DF8002315E080F8283402F045FCE1E783
:10058C0004EB4312012182F8291082F8283093865B
:10059C00002182F82B109163D1639A1C5201A15057
:1005AC0001330E2BECD9002312E004EB4312002193
:1005BC0082F8291282F82832938682F82B12C2F81C
:1005CC003812C2F83C1203F112025201A15001334D
:1005DC000E2BEAD9254655F8107B6E460FCD0FC66B
:1005EC002B683360231D0ECB384600F0D1FF00255D
:1005FC0084F82450012384F82934206801F0E1FAAE
:10060C00284607B0F0BD0120704790F82834012B24
:10061C0001D10220704710B50446012180F828143E
:10062C0002F01BFD206801F0CAFA206800F09BFF65
:10063C00002084F8280410BD90F82834012B01D137
:10064C000220704710B50446012380F8283480F846
:10065C002410006801F0ADFA002084F8280410BDC5
:10066C0038B54DB2002D12DB01F07F04640104F5A6
:10067C000A74044401F07F012170ED0F6570226152
:10068C00E37090F82834012B07D1022038BD01F01B
:10069C007F04640128340444ECE70546012380F808
:1006AC0028342146006800F089FF002085F82804D2
:1006BC0038BD4AB2002A10DB01F07F035B0103F561
:1006CC000A73034401F07F011970D20F5A7090F82D
:1006DC002824012A07D10220704701F07F035B0117
:1006EC0028330344EEE710B50446012280F8282491
:1006FC001946006801F0FBF8002084F8280410BDAE
:10070C0070B501F07F056C0104F50A7101440444D5
:10071C00C4F83C2205F112025201861883500023C2
:10072C00736084F8293284F8285225B1006801F0EE
:10073C0065FA002070BD006801F060FAF9E770B549
:10074C0001F07F056C0104F1280101440444E263CB
:10075C00AA1C52018618835000237360012384F86D
:10076C00293084F8285025B1006801F047FA0020A0
:10077C0070BD006801F042FAF9E770B582B0054629
:10078C000023ADF80630ADF8043095E103889BB238
:10079C0023F4E14323F070039BB203802A68B2F880
:1007AC0050309BB295F8281003EBC103023302EBD7
:1007BC004303D3F80034C3F309036B64EA6B1344AB
:1007CC00EB630021284602F051FB95F82430002BF6
:1007DC0000F072812B6C002B40F06E812A6895F82A
:1007EC00243043F08003A2F84C30002385F82430E9
:1007FC0062E1B0F850309BB295F8282203EBC203AB
:10080C00063300EB4303D3F80034C3F30903C5F8F4
:10081C004432B5F82C2205F22C4101F055FB2A6824
:10082C00138823F070031B051B0D1380284602F060
:10083C000BFB41E1B5F82C22D5F83C1201F044FB3E
:10084C00D5F84422D5F83C321344C5F83C3272E159
:10085C00C1F34F0211F0010F01D0013292B292029A
:10086C0092B2C3F8002484E130F824309BB2ADF886
:10087C000430BDF8043013F4004F36D1BDF8043009
:10088C0013F0800F00F018812A6832F824309BB2E4
:10089C0023F4E14323F070039BB222F8243005EBE0
:1008AC00441393F83230002B40F0B6802868B0F82F
:1008BC0050309BB205EB441292F8282003EBC20394
:1008CC00023300EB4303D3F80034C3F30903A21C37
:1008DC0005EB42125360002B00F0CD8005EB441168
:1008EC008A8DC96B01F075F9C5E030F8243023F01E
:1008FC0070031B051B0D20F8243005EB441393F8F3
:10090C003232DBB92868B0F850309BB205EB441298
:10091C0092F8282203EBC203063300EB4303B3F82F
:10092C000064C6F309068EB305EB44113346B1F8E7
:10093C002C22D1F83C1201F0C7FA27E0286805EB0D
:10094C00441393F8282230F8223013F4804F43D00C
:10095C00B0F850309BB203EBC203023300EB4303FD
:10096C00B3F80064C6F3090666BB2A6805EB4413AA
:10097C0093F8281232F8213023F0F0031B051B0DDD
:10098C0043F4004343F0C00322F8213004F1120376
:10099C005B01E9184A6832444A6005EB4411D1F80E
:1009AC003C223244C1F83C22EB581BB1D1F838122E
:1009BC008E4229D205EB441393F82812284602F0F4
:1009CC004BFA5BE705EB44113346B1F82E22D1F814
:1009DC003C1201F079FAC8E7B0F850309BB203EB47
:1009EC00C203063300EB4303B3F80064C6F30906F5
:1009FC00002EBAD005EB44113346B1F83022D1F8B1
:100A0C003C1201F061FAB0E705EB441191F82812A1
:100A1C002846FFF775FE31E7286805EB441393F879
:100A2C00282030F8223013F0400F00F0B880B0F8D6
:100A3C0050309BB203EBC203023300EB4303D3F8F9
:100A4C000034C3F30903A21C05EB42125360002BC4
:100A5C0040F09E802A6805EB441393F8281032F876
:100A6C00213023F0F0031B051B0D43F4404343F0EE
:100A7C00800322F821302A68B2F850309BB205EB83
:100A8C00441090F8281003EBC103023302EB43032C
:100A9C00D3F80024C2F30902A31C5B01E9184A60D5
:100AAC00C16B0A44C263EB58002B40F0928090F863
:100ABC002810284602F0DAF92868B0F844309BB2C6
:100ACC00ADF8063013F4004F00F08B80BDF80640F3
:100ADC0014F00F047FF4C8AEBDF8063013F0100FFD
:100AEC003FF454AE03889BB2ADF80430BDF804302B
:100AFC0013F4006F7FF47DAEBDF8043013F4004F97
:100B0C00DAD0038823F070031B051B0D03802868C3
:100B1C00B0F850309BB295F8282203EBC203063391
:100B2C0000EB4303D3F80034C3F30903C5F8443294
:100B3C00002B7FF47FAE0021284602F08DF92A6845
:100B4C00B2F850309BB2063302EB4303D5F838129F
:100B5C003E297FF67DAEC1F34F1211F01F0F01D16C
:100B6C00013A92B26FEAC2626FEA524292B2C3F891
:100B7C0000242A6813889BB223F4804323F070036B
:100B8C0083F4405343F4004343F08003138093E712
:100B9C0005EB4411CA8DC96B01F01BF85AE7B0F88C
:100BAC0050309BB203EBC203063300EB4303D3F884
:100BBC000034C3F30903A21C05EB42125360002B53
:100BCC003FF448AF05EB44110A8EC96B01F001F8F4
:100BDC0040E705EB441494F828102846FFF7AFFDC6
:100BEC006AE7002002B070BD10B50446006800F042
:100BFC00EAFF10F4004F45D1206800F0E4FF10F438
:100C0C00806F43D1206800F0DEFF10F4804F08D0D5
:100C1C002268B2F844309BB223F480439BB2A2F812
:100C2C004430206800F0CFFF10F4005F08D0226839
:100C3C00B2F844309BB223F400539BB2A2F8443078
:100C4C00206800F0C0FF10F4805F30D1206800F005
:100C5C00BAFF10F4006F49D1206800F0B4FF10F413
:100C6C00007F66D1206800F0AEFF10F4807F08D0C2
:100C7C002268B2F844309BB223F480739BB2A2F882
:100C8C00443010BD2046FFF778FDB5E72268B2F876
:100C9C0044309BB223F480639BB2A2F844302046CC
:100CAC0002F0F3F800212046FFF7C6FCAAE7226801
:100CBC00B2F840309BB223F004039BB2A2F8403050
:100CCC002268B2F840309BB223F008039BB2A2F822
:100CDC004030204602F0F6F82268B2F844309BB25D
:100CEC0023F480539BB2A2F84430AFE72268B2F8E9
:100CFC0040309BB243F00803A2F840302268B2F8AF
:100D0C0044309BB223F400639BB2A2F844302268B7
:100D1C00B2F840309BB243F00403A2F84030206894
:100D2C0000F051FF10F4805F96D1204602F0BAF823
:100D3C0092E72268B2F844309BB223F400739BB262
:100D4C00A2F84430204602F09AF88BE738B54AB244
:100D5C00002A10DB4B0103F50A73034401249C7039
:100D6C0001F07F041C70D20F5A7090F82824012ACD
:100D7C0007D1022038BD01F07F035B012833034407
:100D8C00ECE70546012280F828241946006800F09B
:100D9C0090FE1CB1002085F8280438BD05F22C41CA
:100DAC00286800F014FFF5E710B54AB2002A10DBF2
:100DBC004B0103F50A73034400249C7001F07F017E
:100DCC001970D20F5A7090F82824012A07D10220EA
:100DDC0010BD01F07F035B0128330344ECE70446AC
:100DEC00012280F828241946006800F099FE0020A2
:100DFC0084F8280410BD11F0800F0CD001F07F0195
:100E0C004901283101445AB101228A72CB801B0C52
:100E1C000B8100207047490101F50A710144F2E78A
:100E2C008A728B80F5E7000082B0084B1B68084A79
:100E3C00A2FB03235B0A00FB03F0019000BF019BA4
:100E4C005A1E0192002BF9D102B07047AC00002061
:100E5C00D34D621070B582B00446036813F0010FD5
:100E6C003DD0AC4B5B6803F00C03042B2ED0A94B8C
:100E7C005B6803F00C03082B23D06368B3F5803F49
:100E8C0051D0002B55D103F1804303F504331A687C
:100E9C0022F480321A601A6822F480221A60636885
:100EAC00002B60D0FFF7A4F905469A4B1B6813F48E
:100EBC00003F14D1FFF79CF9401B6428F5D903209F
:100ECC00AFE1944B5B6813F4803FD6D0914B1B6819
:100EDC0013F4003F03D06368002B00F09F8123685C
:100EEC0013F0020F65D08B4B5B6813F00C0F4ED0D8
:100EFC00884B5B6803F00C03082B43D02369002B51
:100F0C0079D00122844B1A60FFF772F90546814BA8
:100F1C001B6813F0020F65D1FFF76AF9401B02281A
:100F2C00F5D903207DE17B4A136843F480331360C9
:100F3C00B5E7B3F5A02F09D0764B1A6822F48032AE
:100F4C001A601A6822F480221A60A8E703F1804321
:100F5C00A3F53C331A6842F480221A601A6842F4F2
:100F6C0080321A609BE7FFF743F90546694B1B6813
:100F7C0013F4003FB3D0FFF73BF9401B6428F5D9BD
:100F8C0003204EE1634B5B6813F4803FB6D1614B99
:100F9C001B6813F0020F04D02369012B01D0012030
:100FAC003FE15C4A136823F0F803616943EAC1032B
:100FBC001360236813F0080F32D0A369002B6ED096
:100FCC000122564B1A60FFF713F90546514B5B6A29
:100FDC0013F0020F21D1FFF70BF9401B0228F5D9B2
:100FEC0003201EE14B4A136823F0F803616943EABE
:100FFC00C1031360DDE70022474B1A60FFF7F8F8D6
:10100C000546444B1B6813F0020FD2D0FFF7F0F8E3
:10101C00401B0228F5D9032003E10120FFF704FF50
:10102C00236813F0040F00F099803A4BDB6913F03E
:10103C00805F46D1374BDA6942F08052DA61DB6966
:10104C0003F080530193019B0125354B1B6813F46E
:10105C00807F38D0E368012B49D0002B4DD103F1B0
:10106C00804303F504331A6A22F001021A621A6AE9
:10107C0022F004021A62E368002B5DD0FFF7B8F887
:10108C000646244B1B6A13F0020F66D1FFF7B0F82B
:10109C00801B41F288339842F3D90320C1E000222F
:1010AC001E4B1A60FFF7A4F805461A4B5B6A13F047
:1010BC00020FB5D0FFF79CF8401B0228F5D903208E
:1010CC00AFE00025C1E7164A136843F48073136040
:1010DC00FFF78EF80646124B1B6813F4807FB9D1CC
:1010EC00FFF786F8801B6428F5D9032099E0094A9C
:1010FC00136A43F001031362BDE7052B12D0054BB5
:10110C001A6A22F001021A621A6A22F004021A62A6
:10111C00B1E700BF0010024000004242800442428E
:10112C0000700040414B1A6A42F004021A621A6ABB
:10113C0042F001021A629EE7FFF75AF806463B4B53
:10114C001B6A13F0020F08D0FFF752F8801B41F214
:10115C0088339842F3D9032063E0E5B9E369002BA7
:10116C005ED0324A526802F00C02082A5BD0022B85
:10117C0017D000222E4B1A60FFF73AF804462B4B7F
:10118C001B6813F0007F47D0FFF732F8001B0228D2
:10119C00F5D9032045E0254AD36923F08053D36168
:1011AC00DCE70022224B1A60FFF722F805461F4BA2
:1011BC001B6813F0007F06D0FFF71AF8401B0228BB
:1011CC00F5D903202DE0236AB3F5803F1AD01749D7
:1011DC004B6823F47413226A606A024313434B6016
:1011EC000122134B1A60FFF703F804460F4B1B68E0
:1011FC0013F0007F0ED1FEF7FBFF001B0228F5D980
:10120C0003200EE0094A536823F40033A1680B4312
:10121C005360DCE7002004E0002002E0012000E045
:10122C00002002B070BD0120FBE700BF001002409F
:10123C006000424210B586B0154C94E80F000DF1D9
:10124C00180E0EE90F00238AADF80430114B5B68C1
:10125C0003F00C02082A18D1C3F38342724412F82B
:10126C00102C13F4803F03D10B4800FB02F00DE06F
:10127C00084B5B68C3F34043734413F8143C0748B2
:10128C0000FB02F0B0FBF3F000E0044806B010BD28
:10129C00D83100080010024000093D0000127A000D
:1012AC00594B1B6803F007038B420CD2564A136848
:1012BC0023F007030B431360136803F007039942F1
:1012CC0001D00120704770B5036813F0020F06D0EF
:1012DC004E4A536823F0F0038468234353600D4651
:1012EC000446036813F0010F52D04368012B23D03E
:1012FC00022B28D0454A126812F0020F00F08280AF
:10130C0042494A6822F0030213434B60FEF770FF18
:10131C0006466368012B1DD0022B2AD03B4B5B6821
:10132C0013F00C0F34D0FEF763FF801B41F28833AF
:10133C009842F3D9032070BD344A126812F4003F6E
:10134C00DED1012070BD314A126812F0007FD7D176
:10135C00012070BD2D4B5B6803F00C03042B17D0E0
:10136C00FEF746FF801B41F288339842F2D90320E6
:10137C0070BD264B5B6803F00C03082B08D0FEF7FE
:10138C0037FF801B41F288339842F2D9032070BD9D
:10139C001D4B1B6803F007039D420CD21A4A1368BD
:1013AC0023F007032B431360136803F007039D42DC
:1013BC0001D0012070BD236813F0040F06D0134A2E
:1013CC00536823F4E063E1680B435360236813F024
:1013DC00080F07D00D4A536823F46053216943EA80
:1013EC00C1035360FFF726FF084B5B68C3F303137D
:1013FC00074AD35CD840074B18600020FEF7B6FEB6
:10140C00002070BD012070BD002002400010024081
:10141C0034320008AC000020014B1868704700BF44
:10142C00AC00002008B5FFF7F7FF044B5B68C3F373
:10143C000223034AD35CD84008BD00BF0010024011
:10144C004432000870B582B00446036813F0010FF3
:10145C0034D03E4BDB6913F0805F48D13B4BDA69EB
:10146C0042F08052DA61DB6903F080530193019BF7
:10147C000125374B1B6813F4807F3AD0334B1B6A22
:10148C0013F4407311D0626802F4407293420CD092
:10149C002E4A136A23F440702E4901260E60002652
:1014AC000E60106213F0010F37D1284A136A23F42F
:1014BC00407361680B431362002D3FD1236813F016
:1014CC00020F06D0214A536823F44043A1680B4312
:1014DC005360236813F0100F35D01C4A536823F463
:1014EC008003E1680B435360002002B070BD0025FF
:1014FC00BFE7174A136843F480731360FEF778FE56
:10150C000646134B1B6813F4807FB7D1FEF770FEB1
:10151C00801B6428F5D90320E7E7FEF769FE064631
:10152C000A4B1B6A13F0020FBFD1FEF761FE801B42
:10153C0041F288339842F3D90320D6E7D36923F0DC
:10154C008053D361BAE70020CFE700BF0010024000
:10155C00007000404004424284B001A880E80E00B4
:10156C00002004B07047B0F840309BB243F43F43C6
:10157C00A0F8403000207047B0F8403023F474538A
:10158C005B045B0CA0F840300020704700207047D3
:10159C0084B038B505AC84E80E000123A0F84030C7
:1015AC000024A0F84040A0F84440A0F85040FFF7B9
:1015BC00DAFF2046BDE8384004B0704710B4CB7851
:1015CC00032B0FD8DFE803F0026E55610A7830F870
:1015DC0022309BB223F4EC4323F0700343F40073EA
:1015EC0020F822300A7830F8223023F0F0031B0563
:1015FC001B0D134343F4004343F0800320F82230C7
:10160C008B7A002B40F0B2804B78002B57D0B0F87F
:10161C0050309BB20A7803EBC20300EB43038A8879
:10162C0052085200C3F800240A7830F8223013F024
:10163C00400F0BD030F8223023F0F0031B051B0DAC
:10164C0043F4004343F0C00320F822300A7830F80A
:10165C0022309BB223F4E04323F0400383F02003B9
:10166C0043F4004343F0800320F82230002010BCE8
:10167C0070470A7830F822309BB223F4EC4323F005
:10168C0070039BB220F82230ACE70A7830F8223095
:10169C009BB223F4EC4323F0700343F4C06320F8B3
:1016AC0022309FE70A7830F822309BB223F4EC43C7
:1016BC0023F0700343F4806320F8223092E7B0F8F3
:1016CC0050309BB20A7803EBC203043300EB4303A4
:1016DC008A8852085200C3F80024B0F850309BB2EC
:1016EC000A7803EBC203063300EB43030C693E2C70
:1016FC0030D9C4F34F1214F01F0F01D1013A92B23A
:10170C006FEAC2626FEA524292B2C3F800240A78BE
:10171C0030F8223013F4804F0BD030F8223023F005
:10172C00F0031B051B0D43F4404343F0800320F8EA
:10173C0022300A7830F822309BB223F4804323F015
:10174C00700383F4405343F4004343F0800320F8C8
:10175C0022308BE7C4F34F0214F0010F01D0013299
:10176C0092B2920292B2C3F80024D0E70A7830F811
:10177C00223023F4F8731B051B0D43F4014343F093
:10178C00800320F82230B0F850309BB20A7803EB7B
:10179C00C20300EB4303CA8852085200C3F800246A
:1017AC00B0F850309BB20A7803EBC203043300EB61
:1017BC0043030A8952085200C3F800244B78002BCB
:1017CC004BD10A7830F8223013F4804F0BD030F81C
:1017DC00223023F0F0031B051B0D43F4404343F070
:1017EC00800320F822300A7830F8223013F0400FB2
:1017FC000BD030F8223023F0F0031B051B0D43F403
:10180C00004343F0C00320F822300A7830F822302D
:10181C0023F0F0031B051B0D43F4004343F0C003FE
:10182C0020F822300A7830F822309BB223F480431F
:10183C0023F0700383F4405348F28004234320F8D0
:10184C0022300A7830F822309BB223F4E04323F0A4
:10185C004003234320F8223008E70A7830F822307E
:10186C0013F4804F0BD030F8223023F0F0031B051B
:10187C001B0D43F4404343F0800320F822300A78D8
:10188C0030F8223013F0400F0BD030F8223023F018
:10189C00F0031B051B0D43F4004343F0C00320F879
:1018AC0022300A7830F8223023F0F0031B051B0D90
:1018BC0043F4404343F0800320F822300B7830F897
:1018CC00232092B222F4E04222F0400248F280043B
:1018DC00224320F823200A7830F822309BB223F4DC
:1018EC00804323F07003234320F82230BEE68B7A2A
:1018FC00002B44D14B780BB30A7830F8223013F01C
:10190C00400F0BD030F8223023F0F0031B051B0DD9
:10191C0043F4004343F0C00320F822300A7830F837
:10192C0022309BB223F4E04323F0400343F4004302
:10193C0043F0800320F82230002070470A7830F8FA
:10194C00223013F4804F0BD030F8223023F0F00308
:10195C001B051B0D43F4404343F0800320F8223059
:10196C000A7830F822309BB223F4804323F07003C2
:10197C0043F4004343F0800320F82230DCE710B43A
:10198C004B78002B4BD10A7830F8223013F4804F6F
:10199C000BD030F8223023F0F0031B051B0D43F461
:1019AC00404343F0800320F822300A7830F822308C
:1019BC0013F0400F0BD030F8223023F0F0031B054E
:1019CC001B0D43F4004343F0C00320F822300A7887
:1019DC0030F8223023F0F0031B051B0D43F40043B9
:1019EC0043F0C00320F822300B7830F8232092B259
:1019FC0022F4804222F0700248F28004224320F844
:101A0C0023200A7830F822309BB223F4E04323F0F1
:101A1C004003234320F82230002010BC70470A7882
:101A2C0030F8223013F4804F0BD030F8223023F0F2
:101A3C00F0031B051B0D43F4404343F0800320F8D7
:101A4C0022300A7830F8223013F0400F0BD030F8E7
:101A5C00223023F0F0031B051B0D43F4004343F02D
:101A6C00C00320F822300A7830F8223023F0F0033B
:101A7C001B051B0D43F4404343F0800320F8223038
:101A8C000B7830F8232092B222F4E04222F040028C
:101A9C0048F28004224320F823200A7830F82230C0
:101AAC009BB223F4804323F07003234320F82230AD
:101ABC00B2E70A788AB14B7813BB30F822309BB26C
:101ACC0023F4804323F0700383F4805343F40043E6
:101ADC0043F0800320F8223010E030F822309BB223
:101AEC0023F4804323F0400383F4805383F01003EA
:101AFC0043F4004343F0800320F822300020704769
:101B0C0030F822309BB223F4E04323F0400383F0FF
:101B1C00100343F4004343F0800320F82230EDE738
:101B2C004B781BB30A7830F8223013F0400F0BD0EF
:101B3C0030F8223023F0F0031B051B0D43F4004357
:101B4C0043F0C00320F822300A7830F822309BB2E0
:101B5C0023F4E04323F0400383F0300343F40043C9
:101B6C0043F0800320F82230002070470A7830F8C8
:101B7C00223013F4804F0BD030F8223023F0F003D6
:101B8C001B051B0D43F4404343F0800320F8223027
:101B9C000A7830F822309BB223F4804323F0700390
:101BAC0083F4405343F4004343F0800320F8223085
:101BBC00DAE711B98023A0F84C30002070470020E0
:101BCC00704700207047B0F8440080B27047002086
:101BDC00704701335B1000EB420202F5806263B187
:101BEC0010B40C78487844EA002422F8044B0231F3
:101BFC00013B002BF5D110BC70477047F8B58A69D2
:101C0C004C78012C35D00B699A4240F2F080D21AF4
:101C1C008A618A7A002A40F0FA80B0F8502092B299
:101C2C000C7802EBC402063200EB42023E2B40F26F
:101C3C00E280C3F34F1413F01F0F01D1013CA4B287
:101C4C006FEAC4646FEA5444A4B2C2F800440A7840
:101C5C0030F822309BB223F4804323F0700383F4DA
:101C6C00405343F4004343F0800320F8223000201B
:101C7C00F8BD0F69BA4226D9D21B8A610E460546B9
:101C8C008B7A23B30B7830F8232012F0400F6CD0F2
:101C9C00002C39D1B0F8502092B202EBC3030633BA
:101CAC0000EB43033E2F23D9C7F34F1217F01F0F3E
:101CBC0001D1013A92B26FEAC2626FEA524292B219
:101CCC00C3F800242AE000238B611746D6E7BBB289
:101CDC008A884969FFF77DFFB5F850309BB232789E
:101CEC0003EBC203023305EB4303C3F800742BE090
:101CFC00C7F34F0217F0010F01D0013292B29202DA
:101D0C0092B2C3F8002409E0B0F8502092B202EB72
:101D1C00C303023300EB4303C3F800743289BBB234
:101D2C0071692846FFF755FF7378002B4FD1327835
:101D3C0035F8223023F0F0031B051B0D43F4004350
:101D4C0043F0C00325F82230327835F822309BB2AC
:101D5C0023F4E04323F0400383F0300343F40043C7
:101D6C0043F0800325F8223081E724BBB0F85020E3
:101D7C0092B202EBC303023300EB43033E2F0ED9A6
:101D8C00C7F34F1217F01F0F01D1013A92B26FEA4D
:101D9C00C2626FEA524292B2C3F8002415E0C7F354
:101DAC004F0217F0010F01D0013292B2920292B29F
:101DBC00C3F8002409E0B0F8502092B202EBC30340
:101DCC00023300EB4303C3F80074F288A7E7012B3E
:101DDC00BAD1327835F8223023F0F0031B051B0DF5
:101DEC0043F4404343F0800325F82230ACE7002352
:101DFC008B6113460DE7C3F34F0413F0010F01D0B1
:101E0C000134A4B2A402A4B2C2F800441FE7C4B9BE
:101E1C00B0F8502092B20C7802EBC402023200EB04
:101E2C0042023E2B29D9C3F34F1413F01F0F01D1DB
:101E3C00013CA4B26FEAC4646FEA5444A4B2C2F881
:101E4C0000444A788ABBB0F8502092B20C7802EB6E
:101E5C00C402063200EB42023E2B1AD9C3F34F14D4
:101E6C0013F01F0F01D1013CA4B26FEAC4646FEAF6
:101E7C005444A4B2C2F80044E9E6C3F34F0413F08F
:101E8C00010F01D00134A4B2A402A4B2C2F80044E0
:101E9C00D7E7C3F34F0413F0010F01D00134A4B200
:101EAC00A402A4B2C2F80044D1E6012A7FF4CFAE5A
:101EBC00B0F8502092B20C7802EBC402023200EB64
:101ECC004202C2F80034C2E601335B1000EB42025E
:101EDC0002F5806204E0106821F8020B013B043229
:101EEC00002BF8D170470000222303800048704774
:101EFC0008000020D0F8183200201873704700003A
:101F0C000A230380004870472C00002010B5D0F83D
:101F1C0018420B7813F0600325D0202B4FD14B784F
:101F2C00023B092B1BD8DFE803F014091A1A1A1A02
:101F3C001A1A0F058B782360002010BD0122214650
:101F4C0000F029FC002010BD4B881B0A63600020A8
:101F5C0010BD0122211D00F01EFC002010BD00F060
:101F6C00CAF9022010BD4B780A2B1DD00B2B22D0A6
:101F7C00062B01D0002010BD4B881B0A222B07D04A
:101F8C00212B0BD000210A4600F005FC002010BDCF
:101F9C00CA88292A28BF29220A49F5E7CA88092AAA
:101FAC0028BF09220849EFE7012204F1080100F0DB
:101FBC00F2FB002010BD8B78A360002010BD002028
:101FCC0010BD00BF380000206400002010B504468E
:101FDC00812100F0D6FFD4F8180220B101F03CF8B2
:101FEC000023C4F81832002010BD10B50446042399
:101FFC000322812100F0B4FF102001F029F8C4F86D
:10200C00180218B100230373184610BD012010BD2F
:10201C0038B5D0F8185290F8FC41032C01D00020B0
:10202C0038BD2B7B002BFAD113460A4601212973AC
:10203C00812100F0F1FFF2E798B108B50346D0F822
:10204C00140210B10020C3F8140209B1C3F8101225
:10205C001846012380F8FC31027000F039FF002093
:10206C0008BD0220704719B1C0F814120020704747
:10207C000220704708B500F065FF002008BD08B5C8
:10208C00D0F8143223B11B68984718B1022008BD50
:10209C00022008BD002008BD08B5D0F814325B68DA
:1020AC009847002008BD38B5044600F5027528464F
:1020BC0000F00DF90123C4F8F431B4F80E32C4F871
:1020CC00F83194F8081201F01F03012B0ED03BB12C
:1020DC00022B10D001F08001204600F060FF03E0DD
:1020EC002946204600F06EFA002038BD29462046CD
:1020FC0000F08CFAF8E72946204600F0A3FAF3E743
:10210C0010B5044619BB1346D0F8F421032A27D185
:10211C00D0F80C11D0F8102191420BD8D0F8143211
:10212C001B691BB190F8FC21032A0ED0204600F04D
:10213C004FFB15E0891AC0F80C118A4228BF0A46D9
:10214C0092B2194600F03CFB0AE09847EEE70A46CB
:10215C00D0F814329B691BB190F8FC11032901D003
:10216C00002010BD11469847FAE710B50446002927
:10217C0047D11346D0F8F421022A05D094F8003246
:10218C00012B3AD0002010BDC169026A914217D8C8
:10219C008169B1FBF2F302FB13132BB98A4203D80A
:1021AC00D0F8F831994218D3D4F81432DB681BB14B
:1021BC0094F8FC21032A1DD0204600F014FBDDE727
:1021CC008A1AC26192B2194600F0F2FA00231A463A
:1021DC001946204600F02EFFD0E70022114600F0F1
:1021EC00E7FA0021C4F8F8110B460A46204600F025
:1021FC0021FFC3E720469847DEE7002384F800322E
:10220C00C0E70A46D0F814325B69002BBAD090F8BC
:10221C00FC110329B6D111469847B3E738B50446EB
:10222C0040230022114600F09BFE4025C4F81051BB
:10223C002B4600228021204600F092FE25620123CD
:10224C0084F8FC31D4F818322BB1D4F814325B6812
:10225C00217920469847002038BD01740020704732
:10226C0090F8FC3180F8FD31042380F8FC3100201B
:10227C00704790F8FD3180F8FC310020704708B5AC
:10228C0090F8FC31032B01D0002008BDD0F814329B
:10229C00DB69002BF8D09847F6E7002302E0013306
:1022AC00DBB201300278002AF9D1184670474B880E
:1022BC00012B00D0704710B50446C0F80432D0F89A
:1022CC0014329B689847204600F082FA10BD0B78B8
:1022DC0003704B7843708B78CA7803EB02234380EE
:1022EC000B794A7903EB022383808B79CA7903EB50
:1022FC000223C380704710B50446802100F04FFEC6
:10230C000021204600F04BFE10BD30B583B00446D2
:10231C000D464A88130A013B062B00F28180DFE848
:10232C0003F00413277F7F637000D0F810321B6812
:10233C000DF10601007C9847BDF8062012B1EB8820
:10234C00002B71D103B030BD037C43B9D0F81432EB
:10235C009B6A0DF10600984702234370ECE7D0F816
:10236C001432DB6A0DF10600984702234370E3E751
:10237C00D2B2052A34D8DFE802F0030B131B232B4F
:10238C00D0F810325B680DF10601007C9847D3E75A
:10239C00D0F810329B680DF10601007C9847CBE712
:1023AC00D0F81032DB680DF10601007C9847C3E7CA
:1023BC00D0F810321B690DF10601007C9847BBE781
:1023CC00D0F810325B690DF10601007C9847B3E739
:1023DC00D0F810329B690DF10601007C9847ABE7F1
:1023EC002946FFF788FFADE7037C33B9D0F81432E8
:1023FC005B6B0DF1060098479EE72946FFF77BFFC4
:10240C00A0E7037C43B9D0F814321B6B0DF1060026
:10241C009847072343708FE72946FFF76CFF91E736
:10242C002946FFF768FF8DE79A4228BF1A46ADF898
:10243C0006200146204600F0AEF983E738B5044685
:10244C008B88E3B9CB88D3B98D7805F07F0590F8EC
:10245C00FC31032B0CD080F8FE51294600F0CEFD48
:10246C00204600F0B5F935B1022384F8FC3138BDB3
:10247C00FFF741FF38BD012384F8FC3138BD2046FD
:10248C00FFF739FF38BD000038B504460D46897892
:10249C00254B1970012909D890F8FC31022B09D071
:1024AC00032B1CD02946FFF726FF38BD2946FFF722
:1024BC0022FF38BD81B14160032380F8FC31FFF766
:1024CC00DEFD022803D0204600F082F938BD2946F3
:1024DC002046FFF710FF38BD00F07AF938BD89B1FE
:1024EC00436899421DD0D9B2FFF7D6FD0E4B19782F
:1024FC0061602046FFF7C3FD02280DD0204600F096
:10250C0067F938BD022380F8FC314160FFF7C4FD48
:10251C00204600F05DF938BD29462046FFF7EBFE5A
:10252C0038BD00F055F938BD0001002008B5CB8846
:10253C00012B08D190F8FC31022B07D0032B0DD0C6
:10254C00FFF7D9FE08BDFFF7D6FE08BD01460023F4
:10255C0041F8083F012200F01EF908BD0122011DBF
:10256C0000F019F908BD08B590F8FC31023B012BBD
:10257C000CD80123C360D0F804320BB10323C36021
:10258C00022200F10C0100F006F908BDFFF7B3FEC2
:10259C0008BD10B5044690F8FC31023B012B0ED857
:1025AC004B88012B00D010BD0023C0F80432D0F8AA
:1025BC0014329B689847204600F00AF910BDFFF7CB
:1025CC009AFEF0E708B54B78092B1CD8DFE803F02E
:1025DC0012181B151B09051B0F0CFFF796FE00208C
:1025EC0008BDFFF72BFFFAE7FFF74EFFF7E7FFF702
:1025FC009DFFF4E7FFF7B7FFF1E7FFF758FEEEE7B3
:10260C00FFF7C7FFEBE7FFF776FEE8E738B50446C0
:10261C000D4690F8FC31032B11D10B79012B03D90A
:10262C00FFF769FE002038BDD0F814329B6898473C
:10263C00EB88002BF6D1204600F0CAF8F2E7FFF742
:10264C005AFEEFE738B505460C468A880B7803F03E
:10265C006003202B11D0D1B26378012B2BD0002B2F
:10266C004DD0032B0DD190F8FC31022B0BD0032B4A
:10267C0010D02146FFF73FFE03E0D0F814329B68E0
:10268C009847002038BD0029FBD08029F9D000F0F4
:10269C0086FCF6E7638823B919B1802901D000F0D4
:1026AC007EFCD5F814329B6821462846984728466C
:1026BC0000F08EF8E5E790F8FC31022B05D0032BE7
:1026CC000AD02146FFF717FEDBE70029D9D0802975
:1026DC00D7D000F064FCD4E76388002BD1D111F083
:1026EC007F0F03D1284600F073F8CAE700F065FCB1
:1026FC00D5F814329B68214628469847F2E790F8A3
:10270C00FC31022B05D0032B09D02146FFF7F3FD3A
:10271C00B7E711F07F0FB4D000F041FCB1E712F035
:10272C00800F11D101F07F04103400EB0414043439
:10273C00284600F050FC70B1012323600222214690
:10274C00284600F028F89CE701F07F04013400EBE8
:10275C0004140434ECE700232360EFE7D0B170B528
:10276C000D4616460446FFF798FD0130400080B236
:10277C003080287003236B70022307E05A1CD2B2FE
:10278C000134E9540233DBB20021A9542178002929
:10279C00F4D170BD704710B513460222C0F8F42175
:1027AC008361C3610A46002100F036FC002010BD95
:1027BC0008B513460A46002100F02EFC002008BD87
:1027CC0008B513460A46002100F034FC002008BD71
:1027DC0008B50423C0F8F43100231A46194600F05A
:1027EC001BFC002008BD08B50523C0F8F4310023FC
:1027FC001A46194600F01EFC002008BD30B589B001
:10280C00204B9A6942F010029A619A6902F0100208
:10281C000192019A9A6942F020029A619A6902F037
:10282C0020020292029A9A6942F004029A619B6910
:10283C0003F004030393039B134D00224FF4005148
:10284C002846FDF761FE4FF40053049301230593D2
:10285C0002240694079404A92846FDF75FFD04940E
:10286C000A4B0593069404A90948FDF757FD00226D
:10287C0011460720FDF7E8FC0720FDF717FD09B00E
:10288C0030BD00BF001002400010014000003110AC
:10289C000008014084B001AB83E80700034A03CB76
:1028AC00106051601B88138104B0704744020020F3
:1028BC00014B1860704700BFA8000020024B5868FD
:1028CC00003018BF0120704704010020014B5868EC
:1028DC00704700BF04010020F0B585B086460C4659
:1028EC00431E03EB83035900374A0A4401AB1068BB
:1028FC00516803C312891A809DF807309DF8066051
:10290C00B34200D91E46314B5B69B3FBF6F6304B34
:10291C00186806FB00F02F4BA3FB003040099DF814
:10292C000C3013B1022200211BE00122FBE79DF8C1
:10293C000A3003FB1653002BB8BF5B4298423BD9BD
:10294C00531C224F07EB83035F699DF80B3003FB8D
:10295C001673002BB8BF5B42984230D941F001018D
:10296C000232631E9A421CD24900184B03EB8203BD
:10297C005D699DF8083003FB1653002BB8BF5B4212
:10298C009842D4D9531C114F07EB83035B699DF814
:10299C00097007FB1637002FB8BF7F42B842DFD84B
:1029AC00C5E7072C0DD9094A51605B089360D660C6
:1029BC00C2F810E0012000E0002005B0F0BD0020BE
:1029CC00FBE70020F9E700BFEC3100080401002010
:1029DC00A80000201F85EB51014B586A80B270474C
:1029EC000004004000B583B00B4BDA6942F00202E0
:1029FC00DA61DB6903F002030193019BFEF712FD20
:102A0C00064BA3FB0030800C0138054B9862012269
:102A1C001A6003B05DF804FB0010024083DE1B4318
:102A2C000004004010B582B0FFF7D6FFADF80600E9
:102A3C00BDF80630BDF806309BB241F2CC02934291
:102A4C0016D9BDF806309BB2204A52699B1A002B4E
:102A5C00B8BF5B42C72B07D81C4AD2F820310133D0
:102A6C00C2F82031022B2FD00022184BC3F824219E
:102A7C00164BD3F82431422B05D9144B0022C3F842
:102A8C002421C3F82021114BD3F824114A1CC3F87C
:102A9C002421BDF8062092B203EB81035A61002277
:102AAC000B4B5A6202B010BD0134072C07D8074BF0
:102ABC00D3F824112046FFF70FFF0028F4D0002292
:102ACC00024BC3F82021CFE70124EEE704010020DC
:102ADC0000040040FEE7000000B595B001220A9208
:102AEC004FF480330B9300210C910E920222119221
:102AFC0012934FF4E01313930AA8FEF7ABF948BBFB
:102B0C000F23059302210691002307934FF4806253
:102B1C000892099305A8FEF7C3FB00BB1023019391
:102B2C000023049301A8FEF78DFCE8B9FEF774FCB2
:102B3C00104BA3FB00308009FDF7C4FB0420FDF70C
:102B4C00D7FB002211464FF0FF30FDF77DFB15B08F
:102B5C005DF804FB40F2FB110748FFF7BBFF40F2A6
:102B6C0009210548FFF7B6FF4FF404710248FFF73F
:102B7C00B1FF00BFD34D62104C32000800B585B0D8
:102B8C00464B93E80700FFF785FE3C20FFF790FECD
:102B9C000023434A536001248DF808408DF8093016
:102BAC008DF80A308DF80B308DF80C30FDF702FBE8
:102BBC00FFF792FFFFF722FE00F010F9FFF712FF6C
:102BCC0022464FF400513748FDF79EFC03E0019A72
:102BDC00354B9A425AD0FFF771FE0028FBD0FFF715
:102BEC0075FE0190019A314B9A42F0D14FF4FA6084
:102BFC00FDF704FB08238DF809301B238DF80A30F0
:102C0C002B4D052202A92846FFF702FA6420FDF796
:102C1C00F5FA00248DF8094018268DF80A60052273
:102C2C0002A92846FFF7F4F96420FDF7E7FA8DF8BE
:102C3C0009408DF80A40052202A92846FFF7E8F959
:102C4C006420FDF7DBFA8DF809408DF80A60052247
:102C5C0002A92846FFF7DCF96420FDF7CFFA8DF8BE
:102C6C0009408DF80A40052202A92846FFF7D0F941
:102C7C006420FDF7C3FA4FF4FA60FDF7BFFA224661
:102C8C004FF400510748FDF73FFCA0E701224FF439
:102C9C0000510448FDF738FC9DE700BFEC310008FB
:102CAC000401002000100140A2EFCB00A1EFCB00EB
:102CBC009002002000B583B0244B9A6942F00102C7
:102CCC009A619A6902F001020092009ADA6942F064
:102CDC008052DA61DB6903F080530193019B03207E
:102CEC00FDF7A0FA002211466FF00B00FDF7ACFACD
:102CFC00002211466FF00A00FDF7A6FA00221146D9
:102D0C006FF00900FDF7A0FA002211466FF00400E5
:102D1C00FDF79AFA002211466FF00300FDF794FAC2
:102D2C00002211466FF00100FDF78EFA00221146C9
:102D3C004FF0FF30FDF788FA054A536823F0E06343
:102D4C0043F00073536003B05DF804FB00100240C5
:102D5C00000001407047FEE7FEE7FEE7FEE7704724
:102D6C007047704708B5FDF737FAFDF7D2FA08BD82
:102D7C0008B5FFF757FE0220FDF7CEFB08BD00009B
:102D8C0008B50248FDF730FF08BD00BFB4040020B1
:102D9C000F4B1A6842F001021A6059680D4A0A403A
:102DAC005A601A6822F0847222F480321A601A680F
:102DBC0022F480221A605A6822F4FE025A604FF400
:102DCC001F029A604FF00062034B9A60704700BF7D
:102DDC00001002400000FFF800ED00E010B5074CB9
:102DEC00002207492046FFF727F906492046FFF73E
:102DFC003AF92046FFF73EF910BD00BF90020020C3
:102E0C00C80000207000002002680E4B9A4200D0CF
:102E1C00704700B583B003F5DA33DA6942F4000287
:102E2C00DA61DB6903F400030193019B0022114674
:102E3C001420FDF709FA1420FDF738FA03B05DF8F9
:102E4C0004FB00BF005C004008B500F22C41D0F838
:102E5C005C04FFF728F908BD08B500EB4113D3F863
:102E6C003C22D0F85C04FFF74BF908BD08B500EB29
:102E7C004113DA6BD0F85C04FFF777F908BD08B59D
:102E8C00D0F85C04FFF7FBF908BD10B5044601212E
:102E9C00D0F85C04FFF7E1F9D4F85C04FFF7BEF955
:102EAC0010BD000010B50446D0F85C04FFF7D8F94B
:102EBC00A36923B1024A136943F00603136110BDE1
:102ECC0000ED00E008B5D0F85C04FFF7D2F908BDBE
:102EDC0010B504461848C0F85C44C4F82002174BDF
:102EEC00036008234360022383600323C360002331
:102EFC008361C3610362FDF71DFBB8B9182300227F
:102F0C001146D4F82002FDF776FF582300228021C9
:102F1C00D4F82002FDF76FFF4FF48073002281215B
:102F2C00D4F82002FDF767FF002010BD4FF4977115
:102F3C000348FFF7CFFDE1E7B4040020005C00403C
:102F4C005C32000808B5D0F82002FDF75EFB18B122
:102F5C00022803D0022008BD002008BD012008BDB6
:102F6C0010B51C4613462246D0F82002FDF778FB1C
:102F7C0018B1022803D0022010BD002010BD012082
:102F8C0010BD08B5D0F82002FDF793FB18B102284C
:102F9C0003D0022008BD002008BD012008BD08B5E3
:102FAC00D0F82002FDF7D2FE18B1022803D002207F
:102FBC0008BD002008BD012008BD08B5D0F82002CE
:102FCC00FDF7F2FE18B1022803D0022008BD002044
:102FDC0008BD012008BDD0F8202211F0800F06D1C9
:102FEC0001F07F0102EB411191F82A02704701F0C8
:102FFC007F0302EB431191F82A00704708B5D0F813
:10300C002002FDF719FB18B1022803D0022008BDDD
:10301C00002008BD012008BD08B5D0F82002FDF73E
:10302C008EFB18B1022803D0022008BD002008BD79
:10303C00012008BD08B5D0F82002FDF761FB18B1DE
:10304C00022803D0022008BD002008BD012008BDC5
:10305C00004870472C0200207047704712230B80E9
:10306C0000487047B000002004230B8000487047D4
:10307C00C400002008B50A4628B105490548FFF7E9
:10308C006DFB034808BD02490248FFF767FBF8E7F0
:10309C00140900207032000810B5044C0A46214671
:1030AC000348FFF75BFB204610BD00BF140900204E
:1030BC008832000808B50A4628B105490548FFF7CB
:1030CC004DFB034808BD02490248FFF747FBF8E7F0
:1030DC00140900209C32000808B50A4628B105499D
:1030EC000548FFF73BFB034808BD02490248FFF7C0
:1030FC0035FBF8E714090020AC32000808B50A4685
:10310C0028B105490548FFF729FB034808BD0249CA
:10311C000248FFF723FBF8E714090020B832000837
:10312C00002103E00B4B5B58435004310A480B4B16
:10313C0042189A42F6D30A4A02E0002342F8043BB2
:10314C00084B9A42F9D3FFF723FE00F00FF8FFF774
:10315C0015FD7047D032000800000020E40000206C
:10316C00E4000020140B0020FEE7000070B50025E1
:10317C000C4E0D4CA41BA410A54209D100F01AF85A
:10318C0000250A4E0A4CA41BA410A54205D170BD03
:10319C0056F8253098470135EEE756F82530984714
:1031AC000135F2E7C8320008C8320008C8320008FE
:1031BC00CC320008F8B500BFF8BC08BC9E4670477E
:0C31CC00F8B500BFF8BC08BC9E46704778
:1031D80002030405060708090A0B0C0D0E0F101050
:1031E800010200005E01011F0103030100008A02C1
:1031F800010A01020201000064001E47040B0906CF
:1032080000007C010106010303010000F401060E21
:10321800010202010000C2011701010202010100BE
:103228009600023E010606010000000000000000B2
:10323800000000000102030406070809000000005E
:10324800010203042E2E2F5372632F6D61696E2EB7
:10325800630000002E2E2F5372632F757362645F14
:10326800636F6E662E63000053544D3332204875E9
:103278006D616E20696E7465726661636500000039
:1032880053544D6963726F656C656374726F6E69D0
:1032980063730000303030303030303030303141FE
:1032A8000000000048494420436F6E6669670000CB
:1032B80048494420496E7465726661636500000080
:0432C80031010008C8
:0432CC000D010008E8
:1032D000010000001000000009022200010100E0CE
:1032E000320904000001030001000921110100015D
:1032F0002229000705810304000A00000A060002D3
:10330000000000400100000005010906A10185013F
:1033100005077501950819E029E7150025018102C7
:1033200095037508150025640507190029658100B6
:10333000C000000009211101000122290000000045
:10334000F71F0008D91F0008191F0008000000001F
:1033500000000000011F0008000000000000000045
:103360000000000000000000F51E0008F51E000827
:10337000F51E00080D1F00083C00000000A24A04D2
:10338000120100020000004083042B5700020102DA
:1033900003010000040309046930000875300008C7
:1033A000A530000881300008C1300008E530000871
:0433B00009310008D7
:040000050800312D91
:00000001FF
